:10000000803102288731FD2F603051018D008F0132
:100010009101063093009001920108004001E10136
:10002000E2010030DB000030DC000030DD00003099
:10003000DE000030DF000030E0005708DA00D901B0
:1000400055085907E10056085A3DE200E11D2E28E7
:100050000030DE000030DF003F30E000611D462848
:100060000030C8008030C9003E30CA005E08CB00B6
:100070005F08CC006008CD008831562080314001F7
:100080004808DE004908DF004A08E000E11C5E285D
:100090000030C8000030C9003E30CA005E08CB0006
:1000A0005F08CC006008CD008831562080314001C7
:1000B0004808DE004908DF004A08E000611C762895
:1000C0000030C8008030C9003D30CA005E08CB0057
:1000D0005F08CC006008CD00883156208031400197
:1000E0004808DE004908DF004A08E0005E08C80052
:1000F0005F08C9006008CA00610E0F39F800620E7F
:10010000F039F804620E0F39F90092311122803172
:1001100078084001CB007908CC007A08CD008831FE
:100120005620803140014808DB004908DC004A08BD
:10013000DD000030C8000030C9004230CA00003085
:10014000B800A030B9004030BA000030A80010302C
:10015000A9004130AA005B08AB005C08AC005D0858
:10016000AD0096319626803140012808BB00290851
:10017000BC002A08BD009531ED25803140013808CA
:10018000CB003908CC003A08CD0088315620400118
:100190004808D5004908D6004A08D70008005F3053
:1001A0004101A0002008AC0040015E084101A1000F
:1001B00040015D084101A0004001DD0A0319DE0A8B
:1001C000410120088400210885000008A2002208BF
:1001D000C20042080319F62F253042060319FE28F3
:1001E00040015B0886005C088700410142088100ED
:1001F00001304001DB070030DC3DD4284101BE0165
:10020000BF01B901BA010B29410139150130400183
:10021000DD070030DE3D40015D0884005E0885009A
:100220000008303A0319042915295D0884005E0886
:10023000850000089131E1218031031C5A294101D8
:10024000BE01BF010A304001A4000030A5004101F9
:100250003F084001A70041013E084001A60092313D
:100260009A228031400125084101BF004001240845
:100270004101BE0040015D0884005E088500000861
:10028000D03E4101A000FF3003180030A10020083B
:10029000BE072108BF3D01304001DD070030DE3DD3
:1002A0005D0884005E08850000089131E1218031FD
:1002B0000318222940015D0884005E0885001200B1
:1002C0002E3A031DA62941013A1701304001DD07EE
:1002D0000030DE3D4101C001C10140015D088400E4
:1002E0005E08850000089131E1218031031C282A35
:1002F00040015D0884005E08850000084101A000FF
:10030000A10141084001A500410140084001A400AD
:100310000A30A6000030A70092319A2280314101B4
:100320002008400124074101A20021084001253D89
:100330004101A3002208D03EC000FF30233DC10090
:1003400001304001DD070030DE3D6D294101C00173
:10035000C1013A16282A3A154B2A2C088600870133
:100360000108AA000130AB000130A0002008AC0752
:100370002A082B04031DC029FD30AA009830AB00C9
:10038000AD01AE012A082D0784002B082E3D850003
:1003900012000319D0290130AD070030AE3DC2294B
:1003A000400841040319E0292E084102031DDA29FF
:1003B0002D0840020318E0294108AE004008AD00B6
:1003C0003F082E02031DE6293E082D020318ED29E1
:1003D0002D08BE022E08BF3BEF29BE01BF01FF3032
:1003E0004101BE07FF30BF3D3E0A03193F0A031912
:1003F0001C2A40015B0886005C08870020308100D1
:100400000130DB070030DC3DEF292A0884002B088F
:1004100085000008A00040015B0886005C0887009A
:100420004101200881000130AA070030AB3D0130B6
:100430004001DB070030DC3D01304101AD020030FE
:10044000AE3B2D0A031D052A2E0A0319D428052ABE
:1004500040015E084101A10040015D084101A0008A
:100460004001DD0A0319DE0A410120088400210849
:1004700085000008C200003A0319F62F583A031904
:100480004B2A3E3A0319AB29153A0319AD290B3A09
:1004900003194B2AD42800303905A00007303A054B
:1004A000A1002008210403198C2E3A1E5B2A063075
:1004B000C0000030C1002C0886008701403FBB000F
:1004C000413FBC00423FBD000330A0002008AC0704
:1004D0003B08F0003C08F1003D08F2000030F3005A
:1004E0000030F4000030F50093316C2380310318A4
:1004F0008E2A41013B08F0003C08F1003D08F20063
:100500009131CE21803170084101BB007108BC00DF
:100510007208BD000330B9040030BA044101B701CC
:10052000B8013D083C043B0403194A2BBB3086004C
:100530008701403FA000413FA100423FA200433F4E
:10054000A3000F30A336A20CA10CA00C890BA22A89
:10055000FF302005A40000302105A5002408823EBC
:10056000B700FF30253DB800FF30B707FF30B83D7A
:1005700003304001A4000030A500410138084001CB
:10058000A700410137084001A60092319A2280312C
:10059000400125084101B800400124084101B7008D
:1005A0000A30F7000030F8003808FA003708F90080
:1005B00088310420803178084101B8007708B700FD
:1005C000B81FE62AFF30B707FF30B83D3703FF3AC0
:1005D0008D31BC258031400138084101B300400114
:1005E00039084101B40040013A084101B5003B0817
:1005F0004001A80041013C084001A90041013D081B
:100600004001AA00410133084001AB004101340818
:100610004001AC00410135084001AD0096319626FD
:100620008031400128084101B300400129084101FF
:10063000B40040012A084101B5003308F000340835
:10064000F1003508F2000030F3008030F4003F3054
:10065000F50093316C2380310318332BFF304101B7
:10066000B707FF30492B41013308F0003408F1008F
:100670003508F2000030F3002030F4004130F5007E
:1006800093316C238031031C4A2B01304101B707A1
:100690000030B83D41014108803AA000803020027E
:1006A000031D542B0D30400203187D2B41014008DF
:1006B0008A316922803140013808C8003908C900F0
:1006C0003A08CA0041013B084001CB0041013C0807
:1006D0004001CC0041013D084001CD008831562049
:1006E0008031400148084101BB00400149084101F7
:1006F000BC0040014A084101BD0041013808803A70
:10070000A00080302002031D872B0A303702031817
:10071000B02B41013D083C043B040319F82B3B0876
:100720004001C10041013C084001C20041013D08B7
:100730004001C300953166258031400144084304DF
:1007400042044104031DF82B41013808803AA000FF
:1007500080302002031DAE2B02303702031CF82B21
:1007600041013308F0003408F1003508F200703020
:10077000F3008930F4004030F50093316C23803170
:100780000318C42BF730C52BF8304101B707FF30F1
:10079000B83D37088D31BC25803140013808410112
:1007A000B300400139084101B40040013A08410159
:1007B000B5003B08F0003C08F1003D08F2003308AA
:1007C000F3003408F4003508F50097314A278031EA
:1007D00073084101B2007208B1007108B0007008DE
:1007E000AF000030BB000030BC000030BD00462C24
:1007F00041013B084001C10041013C084001C200E9
:1008000041013D084001C30095316625803140011A
:1008100044084101B200400143084101B1004001D8
:1008200042084101B000400141084101AF003208D7
:10083000FB003108FA003008F9002F08F800933166
:100840001823803178084001D5007908D6007A084D
:10085000D70041013B084001D80041013C0840015C
:10086000D90041013D084001DA009231B6228031C1
:10087000400155084101BB00400156084101BC0040
:10088000400157084101BD00B701B801C201C20AC9
:100890000A3042060319792C4208A000A101A035B4
:1008A000A10DA035A10D4130200784009830213DD5
:1008B0008500003FA200013FA300023FA400033FC8
:1008C000A50025083202031D6F2C24083102031DE8
:1008D0006F2C23083002031D6F2C22082F02031CEB
:1008E000792C0130A0002008C2070A304206031DFF
:1008F0004C2C4208A000A101A01BA1034008200726
:10090000A2004108213DA30037082207A4003808AF
:10091000233DA5002408BE022508BF3B4008410432
:100920000319962CFF30BE07FF30BF3D0330390559
:10093000A00000303A05A100200821040319A42CCE
:10094000FF30BE07FF30BF3D391DE82C03303905AD
:10095000A00000303A05A100200821040319BB2C97
:1009600040015B0886005C0887002D308100013063
:10097000DB070030DC3D41013F08803AA0008030B9
:100980002002031DC52C01303E02031C0A2D40012C
:100990005B0886005C088700303081000130DB078F
:1009A0000030DC3DFF304101BE07FF30BF3DBB2CB6
:1009B00040015B0886005C08870020308100013020
:1009C000DB070030DC3DFF304101BE07FF30BF3D9B
:1009D00041013F08803AA00080302002031DF22C24
:1009E00001303E020318D82C033041013905A00024
:1009F00000303A05A1002008210403190A2D400106
:100A00005B0886005C0887002D3081000130DB0721
:100A10000030DC3DFF304101A0002008C207420A3F
:100A20000319762D41014208A000A101A035A10DB6
:100A3000A035A10D4130200784009830213D85006C
:100A4000003FF000013FF100023FF200033FF300DE
:100A50003208F7003108F6003008F5002F08F400DE
:100A60009431B024803173084101B6007208B5009A
:100A70007108B4007008B3000030F3000030F200D9
:100A80000030F1000A30F0003608F7003508F600B3
:100A90003408F5003308F4009431292480317308B8
:100AA0004101B6007208B5007108B4007008B300C7
:100AB0003308303EA00040015B0886005C088700D8
:100AC00041012008810001304001072D40015B08F1
:100AD00086005C088700303081000130DB07003081
:100AE000DC3DFF304101B707FF30B83D3808803AA0
:100AF000A00080302002031D7F2D01303702031833
:100B0000662D41014108803AA00080302002031D7B
:100B10008B2D09304002031C902D08304101922D8D
:100B200041014008A0002008C2004208A000A10125
:100B3000A01BA1032008C0022108C13B42080319E1
:100B4000AC2D40015B0886005C0887002E308100D8
:100B50000130DB070030DC3D410142088D31BC250E
:100B60008031400138084101A600400139084101A7
:100B7000A70040013A084101A80026084001AB0047
:100B8000410127084001AC00410128084001AD00A7
:100B900041013B084001A80041013C084001A90077
:100BA00041013D084001AA0096319626803140015E
:100BB0002808C1002908C2002A08C300953166250B
:100BC0008031400144084101B20040014308410125
:100BD000B100400142084101B0004001410841011B
:100BE000AF00FF30A0002008C207420A0319872E79
:100BF0004208A000A101A035A10DA035A10D4130F2
:100C0000200784009830213D8500003FF000013F1F
:100C1000F100023FF200033FF3003208F700310811
:100C2000F6003008F5002F08F4009431B02480312C
:100C300073084101B6007208B5007108B40070086D
:100C4000B3000030F3000030F2000030F1000A3051
:100C5000F0003608F7003508F6003408F5003308D0
:100C6000F40094312924803173084101B6007208E0
:100C7000B5007108B4007008B3003308303EA0001E
:100C800040015B0886005C08870041012008810064
:100C900001304001DB070030DC3D41014208A0008B
:100CA000A101A035A10DA035A10D41302007840080
:100CB0009830213D8500003FF000013FF100023FE8
:100CC000F200033FF3003208F7003108F600300865
:100CD000F5002F08F4009431292480317308410174
:100CE000B2007208B1007108B0007008F02D400128
:100CF0005B0886005C088700303081000130DB072C
:100D00000030DC3DFF304101C007FF30C13D4008ED
:100D100041040319D428772E2C0886008701403F10
:100D2000A000413FA1002008AF002108B000B101A0
:100D3000B2010230A0002008AC0740084104031DA6
:100D4000AB2E3208310430042F04031DAB2E0130CA
:100D5000C0070030C13DC201C20A08304206031973
:100D6000DE2E4208A000A101A035A10DA035A10DE5
:100D70000030200784009830213D8500003FA2000C
:100D8000013FA300023FA400033FA5002508320253
:100D9000031DD42E24083102031DD42E2308300253
:100DA000031DD42E22082F02031CDE2E0130A000CA
:100DB0002008C20708304206031DB12E4208A000D9
:100DC000A101A01BA1032108803AA2004108803A9A
:100DD0002202031DED2E400820020318F52E4101CA
:100DE0004008A0002008C2000D2F41014208A000C9
:100DF000A101A01BA1034108803AA2002108803A6A
:100E00002202031D052F2008400203180D2F410167
:100E10004208C000C101C01BC10341013E083F049C
:100E20000319202F03303905A00000303A05A10036
:100E3000200821040319202FFF30BE07FF30BF3DDB
:100E40003A1F372F4108803AA0003F08803A20021D
:100E5000031D2C2F3E0840020318342F4101400887
:100E6000BE024108BF3B372F4101BE01BF0142080E
:100E7000A000A101A01BA1032108803AA2003F0805
:100E8000803A2202031D462F3E0820020318532FEA
:100E900041014208A000A101A01BA1032008BE023D
:100EA0002108BF3B562F4101BE01BF01391D832FD1
:100EB00003303905A00000303A05A10020082104C4
:100EC00003196D2F40015B0886005C0887002D30F8
:100ED00081000130DB070030DC3D41013E083F046A
:100EE0000319B02F40015B0886005C088700303092
:100EF00081000130DB070030DC3DFF304101BE07DF
:100F0000FF30BF3D6E2F3E083F0403199B2F400169
:100F10005B0886005C088700203081000130DB0719
:100F20000030DC3DFF304101BE07FF30BF3D3E08D1
:100F30003F04031D872F03303905A00000303A0518
:100F4000A100200821040319B02F40015B0886008E
:100F50005C0887002D3081000130DB070030DC3D6C
:100F6000FF304101C007FF30C13D400A0319410A6B
:100F70000319D428410141088500400884008435C4
:100F8000850D8435850D003084079830853D003F00
:100F9000F000013FF100023FF200033FF30032088E
:100FA000F7003108F6003008F5002F08F4009431FE
:100FB000B024803170080F394101A0002008A90039
:100FC0002908B73E840098300318013E85000008C8
:100FD000A0002008C20040015B0886005C08870072
:100FE00041014208810001304001AD2F40015B0802
:100FF00086005C0887008101080040018B31CE2B00
:1010000040019212981208004001A101F81F0F2818
:10101000F709F809F70A0319F80AA101A10AFA1F4A
:101020001A28F909FA09F90A0319FA0A0130FB002A
:101030007B08A106A201A3017708780403194928B7
:10104000A001A00AF81B2E280130F735F80D890BF6
:1010500025280130FB007B08A00722280130A2359B
:10106000A30D890B2F2878087A02031D39287708E9
:101070007902031C40287708F9027808FA3B221409
:101080000130F836F70C890B41280130A002031D0E
:101090002E28210803195128A209A309A20A03191D
:1010A000A30A2308F8002208F700080040014808B6
:1010B000CE004908CF004A08D00003104F0D500D54
:1010C000D1005108D4004B08CE004C08CF004D0889
:1010D000D00003104F0D500DD1005108D30054081B
:1010E00003197E2853085402031885285403FF3A35
:1010F0005307CE0019304E02031C85284B08C80048
:101100004C08C9004D08CA0008005308031908001C
:1011100054085302031894285303FF3A5407CE008F
:1011200019304E02031808000630CE004E08D200D7
:10113000CA1BD217CD1B5217C917FF30C805FF3085
:10114000C9050030CA05CC17FF30CB05FF30CC05F0
:101150000030CD05530854020318D0280130CB3598
:10116000CC0DCD0D890BAF280130D30253085406A6
:101170000319CB280130D202520807390319CB28B2
:10118000AE280130CA36C90CC80C890BC228013000
:10119000CE004E08D407540853060319F528C12879
:1011A000540853020318F5280130C835C90DCA0D7B
:1011B000890BD5280130D402530854060319F128AD
:1011C0000130D202520807390319F128D42801301E
:1011D000CD36CC0CCB0C890BE8280130CE004E0864
:1011E000D30754085306031DE728D21F0729FF30F1
:1011F000C806FF30C906FF30CA060130C8070030F4
:1012000003180130C907003003180130CA07521F04
:101210001929FF30CB06FF30CC06FF30CD06013058
:10122000CB07003003180130CC0700300318013021
:10123000CD07D2014808CB074908CC3D4A08CD3D2F
:10124000CD1F3429FF30CB06FF30CC06FF30CD0652
:101250000130CB07003003180130CC0700300318F1
:101260000130CD07D201D20A4B08F0004C08F10042
:101270004D08F2005408CE004E08F3005208CF008B
:101280004F08F4009531022570084001C80071082C
:10129000C9007208CA000800703086008701403F0C
:1012A000F600413FF700423FF800433FF9000310CA
:1012B000780D790DFA007A084001A5002508031D74
:1012C0006A290030F3000030F2000030F1000030F5
:1012D000F0000800733086008701403FF600413F70
:1012E000F700423FF800433FF9000310780D790DF5
:1012F000FA007A08A4002408031D87290030F300AF
:101300000030F2000030F1000030F00008007030D2
:101310008600870100308104413100308104413171
:1013200080308104413100308104703086008701B3
:10133000FF3081054131FF3081054131FF308105AA
:10134000413100308105733086008701003081040F
:10135000413100308104413180308104413100301D
:101360008104733086008701FF3081054131FF30F1
:1013700081054131FF308105413100308105003068
:10138000A3000030A2000030A1000030A0007F3098
:10139000A502A0302407F6007608A5022030F6004A
:1013A0007608A4000130A035A10DA20DA30D890B74
:1013B000D329733086008701403FF600413FF70094
:1013C000423FF800433FF900703086008701403FFC
:1013D000FA00413FFB00423FFC00433FFD0079081B
:1013E0007D02031DFD2978087C02031DFD29770875
:1013F0007B02031DFD2976087A02031C1A2A73302A
:1014000086008701403FF600413FF700423FF80069
:10141000433FF90070308600870176088102413130
:101420007708813B41317808813B41317908813B24
:101430007D31201470308600870181354131810D66
:101440004131810D4131810D7D310130A402031DF7
:10145000D229A51F472A2508803A9F3E0318392A1A
:101460000030F3000030F2000030F1000030F000F6
:1014700008000130A336A20CA10CA00C890B3A2A5B
:101480000130F6007608A5070319602A392A2030B2
:101490002502031C5D2A0030F3000030F20000300A
:1014A000F1000030F00008000130A035A10DA20DC0
:1014B000A30D890B552A0130A5022508031D542AC6
:1014C0002308F3002208F2002108F1002008F000B0
:1014D00008004001C5006E304502031C292B0A306C
:1014E000F7000030F8004508BB00BC013B08F200E3
:1014F0003C08F3006430F0000030F10094316B24BC
:101500008A317108FA007008F900883104208A31A4
:101510007708093E4001A4000030783DA500033063
:10152000A6000030A70092319A228A314001250896
:10153000850024088400903084079830853D003F62
:10154000A800013FA900023FAA006430F700003064
:10155000F8004508BD00BE013D08F9003E08FA004C
:10156000883104208A317708123E4001A4000030FF
:10157000783DA5000330A6000030A70092319A22E2
:101580008A314001250885002408840090308407B2
:101590009830853D003FAB00013FAC00023FAD00FD
:1015A000963196268A3140012808C2002908C300D6
:1015B0002A08C4004508BB00BC013B08F2003C08F7
:1015C000F3000A30F0000030F10094316B248A31CE
:1015D00071084001A5007008A4000330A600003087
:1015E000A70092319A228A314001250885002408FB
:1015F0008400903084079830853D003FA800013F6B
:10160000A900023FAA004208AB004308AC0044080E
:10161000AD00963196268A3140012808BF0029087E
:10162000C0002A08C1000030A8000030A9003F30E7
:10163000AA003F08AB004008AC004108AD0096315D
:10164000962640012808B8002908B9002A08BA00DF
:1016500008000B304502031CA12B4508BB00BC0150
:101660003B08F2003C08F3000A30F0000030F100C3
:1016700094316B248A3171084001A5007008A400E0
:101680000330A6000030A70092319A228A3140012F
:101690002508850024088400903084079830853D13
:1016A000003FA800013FA900023FAA000A30F7004E
:1016B0000030F8004508BD00BE013D08F9003E08B5
:1016C000FA00883104208A317708093E4001A400DD
:1016D0000030783DA5000330A6000030A70092310D
:1016E0009A228A3140012508850024088400903020
:1016F00084079830853D003FAB00013FAC00023FBE
:10170000AD00963196268A3140012808C20029088A
:10171000C3002A08C4000030A8000030A9003F30F0
:10172000AA004208AB004308AC004408AD00963163
:10173000962640012808B8002908B9002A08BA00EE
:1017400008000030A8000030A9003F30AA0045087A
:10175000BB00BC013B08A4003C08A5000330A60068
:101760000030A70092319A228A3140012508850075
:1017700024088400903084079830853D003FAB00FA
:10178000013FAC00023FAD0096319626400128088B
:10179000B8002908B9002A08BA0008009131B82118
:1017A0008B319331E7238B31602D40011812333098
:1017B0009131FF218B313530890BDC2B0000420148
:1017C000E901EA016A08803A4101C300803043021E
:1017D000031DED2B08304201690203180E2C9231D3
:1017E00068228B314101C30042016908E73E86004F
:1017F000870141014308810001304201E9070030BF
:10180000EA3D6A08803A4101C30080304302031D6B
:101810000C2C083042016902031CEF2B20304001E0
:10182000DB000130DC002030DD009830DE004101BB
:101830006E08C300C40143084001DF0041014408B1
:101840004001E00041016D08C500C60145084001A6
:10185000E100410146084001E20041016C08C70077
:10186000C80147084001E300410148084001E40085
:1018700041016B08C900CA0149084001E500410166
:101880004A084001E60041016A08CB00CC014B0840
:101890004001E70041014C084001E80041016908AE
:1018A000CD00CE014D084001E90041014E08400144
:1018B000EA0041016808CF00D0014F084001EB0069
:1018C000410150084001EC0041016708D100D201FC
:1018D00051084001ED00410152084001EE00803105
:1018E000CF208B319231F4228B314101C300C401EE
:1018F00043084201E700410144084201E800CC30BE
:101900009131FF218B3144309131FF218B311F30D8
:101910004101C4007130C3001E30890B8D2CC30BF4
:101920008D2CC40B8D2C00009231F4228B3141019F
:10193000C300C40143084201E700410144084201D9
:10194000E800CC309131FF218B31BE309131FF2145
:101950008B31923168228B314101C300C4014308AD
:101960004201E000410144084201E1009231682255
:101970008B314101C300C40143084201E20041012F
:1019800044084201E3009131BE218B31F301F30A97
:1019900001309331A7238B31D830F5009830F60011
:1019A000923180228B31F301F30A02309331A72365
:1019B0008B31D3304001DB000030DC000430DD002F
:1019C0009930DE0020304101C30043084001DF00B0
:1019D0008031CF208B31D330F5000030F6009231CA
:1019E00080228B3152304101C4002B30C3000030C3
:1019F000890BF82CC30BF82CC40BF82C0000420107
:101A000061084001D600420160084001D500420152
:101A100063084001D800420162084001D7008031CC
:101A20000E208B31400155084201E4004001560868
:101A30004201E500400157084201E6009131BE2114
:101A40008B31F301F30A01309331A7238B31E83056
:101A5000F5009830F600923180228B31F301F30AC1
:101A600002309331A7238B31D3304001DB000030AB
:101A7000DC00F530DD009830DE00420164084001F2
:101A8000DF00420165084001E000420166084001B4
:101A9000E1008031CF208B31D330F5000030F600EB
:101AA000923180228B3152304101C4002B30C3006F
:101AB0000030890B592DC30B592DC40B592D000033
:101AC00000304201E4000030E5000030E6009231D1
:101AD000F4228B314101C300C40143084201E700F5
:101AE000410144084201E800670868040319D52B46
:101AF000400118169131BE218B31F301F30A0130F8
:101B00009331A7238B31C830F5009830F60092311D
:101B100080228B3152304101C4002B30C300003091
:101B2000890B902DC30B902DC40B902D000042010A
:101B3000E901EA016A08803A4101C30080304302AA
:101B4000031DA52D1030420169020318602D0530D8
:101B50004101C4000F30C300F130890BAD2DC30B20
:101B6000AD2DC40BAD2D9131C6218B310130420119
:101B7000E9070030EA3D9A2D4001C000C01FE12E68
:101B8000C009C00A4008803A123E031C652E0A3084
:101B9000F7000030F8004008F200F301F21BF303F5
:101BA0006430F0000030F10094316B248D31710805
:101BB000FA007008F900883104208D317708093E59
:101BC0004001A4000030783DA5000330A60000309D
:101BD000A70092319A228D31400125088500240802
:101BE0008400903084079830853D003FA800013F75
:101BF000A900023FAA006430F7000030F800400856
:101C0000F900FA01F91BFA03883104208D317708B5
:101C1000123E4001A4000030783DA5000330A6002C
:101C20000030A70092319A228D31400125088500AD
:101C300024088400903084079830853D003FAB0035
:101C4000013FAC00023FAD00963196268D31400138
:101C50002808BD002908BE002A08BF004008F2007D
:101C6000F301F21BF3030A30F0000030F10094316D
:101C70006B248D3171084001A5007008A400033069
:101C8000A6000030A70092319A228D31400125082C
:101C9000850024088400903084079830853D003FFB
:101CA000A800013FA900023FAA003D08AB003E0882
:101CB000AC003F08AD009631962640012808B800D8
:101CC0002908B9002A08BA0008004008803A753E81
:101CD000031CC42E4008F200F301F21BF3030A3088
:101CE000F0000030F10094316B248D317108400117
:101CF000A5007008A4000330A6000030A7009231B0
:101D00009A228D31400125088500240884009030F6
:101D100084079830853D003FA800013FA900023F9D
:101D2000AA000A30F7000030F8004008F900FA0174
:101D3000F91BFA03883104208D317708093E4001F0
:101D4000A4000030783DA5000330A6000030A700B5
:101D500092319A228D3140012508850024088400A3
:101D6000903084079830853D003FAB00013FAC00C8
:101D7000023FAD009631962640012808B800290898
:101D8000B9002A08BA0008004008BB00BC013B08A3
:101D9000A4003C08A5000330A6000030A700923143
:101DA0009A22400125088500240884009030840789
:101DB0009830853D003FB800013FB900023FBA00AE
:101DC00008004008803A123E031C842F0A30F700B6
:101DD0000030F8004008F200F301F21BF303643016
:101DE000F0000030F10094316B248D317108FA005D
:101DF0007008F900883104208D317708093E4001D0
:101E0000A4000030783DA5000330A6000030A700F4
:101E100092319A228D3140012508850024088400E2
:101E2000693084079830853D003FA800013FA90034
:101E3000023FAA006430F7000030F8004008F900C3
:101E4000FA01F91BFA03883104208D317708123E1C
:101E50004001A4000030783DA5000330A60000300A
:101E6000A70092319A228D3140012508850024086F
:101E70008400693084079830853D003FAB00013F06
:101E8000AC00023FAD00963196268D314001280806
:101E9000BD002908BE002A08BF004008F200F30177
:101EA000F21BF3030A30F0000030F10094316B2490
:101EB0008D3171084001A5007008A4000330A60010
:101EC0000030A70092319A228D314001250885000B
:101ED00024088400693084079830853D003FA800BD
:101EE000013FA900023FAA003D08AB003E08AC003C
:101EF0003F08AD009631962640012808B800290811
:101F0000B9002A08BA0008004008803A753E031C50
:101F1000E32F4008F200F301F21BF3030A30F00054
:101F20000030F10094316B248D3171084001A5001F
:101F30007008A4000330A6000030A70092319A2256
:101F40008D3140012508850024088400693084070C
:101F50009830853D003FA800013FA900023FAA003C
:101F60000A30F7000030F8004008F900FA01F91BC8
:101F7000FA03883104208D317708093E4001A4001E
:101F80000030783DA5000330A6000030A700923154
:101F90009A228D314001250885002408840069308B
:101FA00084079830853D003FAB00013FAC00023F05
:101FB000AD009631962640012808B8002908B900DE
:101FC0002A08BA0008004008BB00BC013B08A40076
:101FD0003C08A5000330A6000030A70092319A22E9
:101FE0004001250885002408840069308407983062
:101FF000853D003FB800013FB900023FBA0008002C
:1023680040019212981608009131EF219131803185
:10237800042008000030923124229131013092313A
:102388002422080001309231242291310830923100
:1023980024220800720871047004031908008030B0
:1023A800F2060800F001400198168C1EDE29F001A3
:1023B800F00ADF29F00170080800F100F0013A3056
:1023C80071020318ED2930307102031CED29F00168
:1023D800F00A700C0800400198019A010730920039
:1023E80094017E01CE010730B800B901CF01183041
:1023F800BA00D0010800F200F30108307302031894
:102408000800720801399231D42291310310F20C7C
:102418000130F1007108F307012A7808F000790803
:10242800F100F2018E30FB007B08F300F4019531D6
:1024380002257008F8007108F9007208FA0008000F
:10244800F20040010E107208923138229231400198
:102458008E145430F1001C30890B302AF10B302ACD
:10246800003240018E100800F000701C3E2A400126
:102478000E15402A40010E11F01C442A8E15452ADB
:102488008E11701D492A0E164A2A0E12F01D4E2A68
:102498008E1608008E120800883100209231103004
:1024A800890B542A9131B42192311830890B5A2A58
:1024B8009131D6219231F1007108F200AD30890BCB
:1024C800632A000072080800F401F501083075025B
:1024D80003187E2A0310F40C923150229231003AEC
:1024E800031DF4170130F3007308F507083075026F
:1024F800031C6F2A74080800F801F90175087807A9
:1025080084007608793D85001200031908007508D3
:10251800780784007608793D8500000893314023C8
:1025280092310130F8070030F93D822AFC01FD01A3
:102538004001241CA32A2608FC072708FD3D01307A
:10254800A635A70D890BA42A0130A536A40C890B42
:10255800A92A24082504031D9C2A7D08A5007C08B7
:10256800A400080040015708560455040319BE2A60
:102578008030D7065808C8005908C9005A08CA0048
:102588005508CB005608CC005708CD008831562096
:1025980040014808D5004908D6004A08D700080075
:1025A800F00070080319E62A8831002092311030B3
:1025B800890BDC2A9131B4219231AA30890BE22AA5
:1025C80000320800883100209231A030890BEA2AB5
:1025D8009131B42192311A30890BF02A0032080067
:1025E8008831002092310630F1003030890BFA2A08
:1025F800F10BFA2A00329131B4219231A030003225
:10260800890B032B9131D6219231F1007108F20028
:102618000530F1004130890B0F2BF10B0F2B000017
:102628009131B421720808008E30FC007C08FD004E
:10263800FF307B0503192C2B0130FB36FA0CF90C03
:10264800F80C890B212B0130FC007C08FD071C2BA2
:102658007808F0007908F1007A08F2007D08FC009B
:102668007C08F300F401953102257008F800710820
:10267800F9007208FA000800F40074080F39F10034
:102688007108F2007408F039F1007108F300400194
:102698000E147308F1000430F136890B502B7108C1
:1026A80092313822933140018E146A30890B5A2BAB
:1026B800003240018E107208923138229331400165
:1026C8008E146A30890B662B003240018E10080088
:1026D800F21F822B7009F6007109F7007209F800E1
:1026E800F60A0319F70A0319F80A00307607F0000A
:1026F8000030773DF1008030783DF200F51F982BCF
:102708007309F6007409F7007509F800F60A031949
:10271800F70A0319F80A00307607F3000030773D0E
:10272800F4008030783DF5008030F2068030F50600
:1027380075087202031D080074087102031D080061
:10274800730870020800F6007603031DC72B730890
:102758007F3EF4007408F9007908F4000430F43678
:10276800890BB32B7408F5007508F70079080F3941
:10277800F4007408F800770892312422933178081D
:1027880092312422080002307606031D08007308DF
:10279800BF3EF4007408F9007908F4000430F436F8
:1027A800890BD32B7408F5007508F70079080F39E1
:1027B800F4007408F80077089231242293317808DD
:1027C8009231242208000030923138229331D030DF
:1027D800F300CA30890BEE2BF30BEE2B033092314A
:1027E800242293316830F300E430890BF92BF30B82
:1027F800F92B00320330923124229331D030F30088
:10280800CA30890B052CF30B052C03309231242296
:1028180093310230923124229331023092312422B2
:10282800933108309231242293310030923124229E
:1028380093310C309231242293310030923124228A
:10284800933106309231242208007308720471040F
:1028580070040319622CF901F90AF31B3F2C0130AB
:10286800F035F10DF20DF30D890B342C0130F80021
:102878007808F907312C73087702031D4D2C72086C
:102888007602031D4D2C71087502031D4D2C70082E
:102898007402031C572C7008F4027108F53B720887
:1028A800F63B7308F73B0130F336F20CF10CF00CF1
:1028B800890B582C0130F902031D3F2C7708F300CF
:1028C8007608F2007508F1007408F0000800F601B7
:1028D800F31F752CF209F309F20A0319F30AF6013A
:1028E800F60AF11F7C2CF009F109F00A0319F10A24
:1028F800700871040319A32CF501F50AF11B8E2C3D
:102908000130F035F10D890B852C0130F400740885
:10291800F507822C71087302031D942C700872024B
:10292800031C9A2C7008F2027108F33B0130F1364F
:10293800F00C890B9B2C0130F502031D8E2C7608B8
:102948000319AB2CF209F309F20A0319F30A730805
:10295800F1007208F00008000030FC000030FB00B5
:102968000030FA000030F900730872047104700432
:102978000319F92CFD01FD0AF31BCE2C0130F035AB
:10298800F10DF20DF30D890BC32C0130F800780816
:10299800FD07C02C0130F935FA0DFB0DFC0D890B34
:1029A800CF2C73087702031DE32C72087602031DEF
:1029B800E32C71087502031DE32C70087402031CD4
:1029C800EE2C7008F4027108F53B7208F63B7308A8
:1029D800F73B79140130F336F20CF10CF00C890B4B
:1029E800EF2C0130FD02031DCE2C7C08F3007B0880
:1029F800F2007A08F1007908F0000800730803195A
:102A08000A2D720871047004031D1B2D0030F0009C
:102A18000030F1000030F20008000130F5007508C0
:102A2800F3070130F236F10CF00C890B162DFE304D
:102A380072050319342D112D0130F5007508F307BF
:102A48000130F007003003180130F1070030031897
:102A58000130F2070130F236F10CF00C890B2F2D02
:102A6800FF3072050319412D202D0130F30201308A
:102A7800F035F10DF20D890B3C2DF11B472D02307D
:102A880073020318392D73184F2DFF30F0057F306E
:102A9800F105FF30F2050310F30C7308F500F60199
:102AA800F7011030F535F60DF70D890B562D750821
:102AB800F0047608F1047708F20474080319080092
:102AC800F217080040014108C5004208C600430843
:102AD800C7000310460D470DC8004808CE004E0831
:102AE800031D7F2D0030C4000030C3000030C20039
:102AF8000030C10008004108C5004208C60043086C
:102B0800C7001730C736C60CC50C890B862D45087B
:102B1800C8004808C900C217FF30C105FF30C20508
:102B28000030C3054108CA004208CB004308CC0066
:102B3800CD018E30CE02CE1FBD2D4E08803A8F3E7D
:102B48000318AF2D0030C4000030C3000030C200AD
:102B58000030C10008000130CD36CC0CCB0CCA0CBB
:102B6800890BB02D0130C5004508CE070319D62DB5
:102B7800AF2D18304E02031CD32D0030C400003096
:102B8800C3000030C2000030C10008000130CA355F
:102B9800CB0DCC0DCD0D890BCB2D0130CE024E08BF
:102BA800031DCA2D49080319E42DCA09CB09CC090C
:102BB800CD09CA0A0319CB0A0319CC0A0319CD0A8D
:102BC8004D08C4004C08C3004B08C2004A08C100A5
:102BD800080040013B08BE003C08BF003D08C0009B
:102BE80003103F0D400DC1004108C6004608031DF3
:102BF800042E0030B8000030B9000030BA000800D8
:102C08003808BE003908BF003A08C00003103F0D5D
:102C1800400DC1004108C7004708031D1A2E0030A7
:102C2800B8000030B9000030BA0008000030C30016
:102C38000030C4000030C50089304707BE003E0898
:102C4800C6023B08BE003C08BF003D08C00010306B
:102C5800C036BF0CBE0C890B2C2E3E08C1004108A3
:102C6800C7003808BE003908BF003A08C000103055
:102C7800C036BF0CBE0C890B3C2E3E08C100410873
:102C8800C7068030BE003E08C705BC17FF30BB052D
:102C9800FF30BC050030BD05B917FF30B805FF305F
:102CA800B9050030BA051830BE003E08C200013030
:102CB800C335C40DC50D890B5C2E3A083D02031DB2
:102CC8006B2E39083C02031D6B2E38083B02031C8F
:102CD800742E3808BB023908BC3B3A08BD3B431484
:102CE8000130BB35BC0DBD0D890B752E0130C202FC
:102CF800031D5B2E4308F0004408F1004508F2006C
:102D08004608BE003E08F3004708BF003F08F4002D
:102D18009531022570084001B8007108B9007208A1
:102D2800BA00080040012808AE002908AF002A08A8
:102D3800B00003102F0D300DB1003108B200320879
:102D4800031DAD2E0030A8000030A9000030AA00F5
:102D580008002B08AE002C08AF002D08B0000310A7
:102D68002F0D300DB1003108B7003708031DC32EF1
:102D78000030A8000030A9000030AA000800370879
:102D88007B3EAE002E08B2072808AE002908AF0027
:102D98002A08B0001030B036AF0CAE0C890BCF2E1D
:102DA8002E08B1003108B7002B08AE002C08AF0080
:102DB8002D08B0001030B036AF0CAE0C890BDF2EEA
:102DC8002E08B1003108B7068030AE002E08B705CE
:102DD800A917AC17FF30AB05FF30AC050030AD05C7
:102DE8000030B3000030B4000030B5000730AE004A
:102DF8002E08B600281C062F2B08B3072C08B43D54
:102E08002D08B53D0130AA36A90CA80C890B072F4F
:102E18000130AB35AC0DAD0D890B0D2F0130B6026D
:102E2800031DFE2E0930AE002E08B600281C222FE6
:102E38002B08B3072C08B43D2D08B53D0130AA3640
:102E4800A90CA80C890B232F0130B536B40CB30C90
:102E5800890B292F0130B602031D1A2F3308F00001
:102E68003408F1003508F2003208AE002E08F300ED
:102E78003708AF002F08F40095310225700840018B
:102E8800A8007108A9007208AA0008007008F600D6
:102E98007108F7007208F8000310770D780DF90033
:102EA80079084001A5002508031D632F0030F300B1
:102EB8000030F2000030F1000030F0000800730824
:102EC800F6007408F7007508F8000310770D780D00
:102ED800F9007908A4002408031D7B2F0030F300B3
:102EE8000030F2000030F1000030F0000800F11767
:102EF800FF30F005FF30F1050030F205F417FF3020
:102F0800F305FF30F4050030F5050030A30000306C
:102F1800A2000030A1000030A0007F30A502983048
:102F28002407F6007608A5021830F6007608A400F3
:102F38000130A035A10DA20DA30D890B9D2F750899
:102F48007202031DAD2F74087102031DAD2F7308A3
:102F58007002031CB62F7308F0027408F13B750861
:102F6800F23B20140130F035F10DF20D890BB72F2B
:102F78000130A402031D9C2FA51FDE2F2508803ACF
:102F8800973E0318D02F0030F3000030F2000030D5
:102F9800F1000030F00008000130A336A20CA10CAB
:102FA800A00C890BD12F0130F6007608A50703196C
:102FB800F72FD02F18302502031CF42F0030F30010
:102FC8000030F2000030F1000030F000080001305D
:102FD800A035A10DA20DA30D890BEC2F0130A50280
:102FE8002508031DEB2F2308F3002208F20021080F
:102FF800F1002008F00008000134003400340034E7
:103008001034003400340034003401340034003407
:1030180000341034003400340034003401340034F7
:1030280000340034103400340034003400340134E7
:1030380000340034003410342534303432345834F9
:10304800253430343234583425343034323458341A
:10305800253430343234583425343034323458340A
:1030680025343034323458342534303432345834FA
:1030780025343034323458340034013400340034C8
:1030880000340A340034003400346434003400342A
:103098000034E83403340034003410342734003466
:1030A8000034A034863401340034403442340F34C0
:1030B800003480349634983400340034E134F534E4
:1030C80005340034CA349A343B34003480343F34F5
:1030D8000034203441340034C834423400347A3463
:1030E800443440341C3446345034C33447342434D4
:1030F80074344934973418344B34BC34BE344C34AB
:103108006B346E344E340334153450347934AD3462
:103118006034F33449347134003480343F34CD346E
:10312800CC343D34D73423343C34123483343A34E9
:10313800B734D1343834C634273437343834863445
:103148003534C034D6343334CC342B343234703440
:1031580089343034E734DB342E34E5343C341E34DF
:103168004234A2340D3430343134323433343434CC
:1031780035343634373438343934413442344334CE
:103188004434453446340034203431342D347734D3
:1031980069347234653420344D346934733473348B
:1031A80069346E3467340034203431342D34773444
:1031B800693472346534203450347234653473346D
:1031C80065346E3474340034543465346D3470347A
:1031D80065347234613474347534723465343A3415
:1031E800003420342034253432342E3435346634D7
:1031F800003428346E3475346C346C34293400341B
:063208002534733400348C
:020000040001F9
:0A000E00EC3FFF3F9F3FFF3FFF3F25
:00000001FF
